:100000000C9434000C9446000C9446000C9446006A
:100010000C9446000C9446000C9446000C94460048
:100020000C9446000C9446000C9446000C94B100CD
:100030000C9446000C9446000C9446000C94460028
:100040000C9446000C9446000C9486000C944600D8
:100050000C9446000C9446000C9446000C94460008
:100060000C9446000C94460011241FBECFEFD4E040
:10007000DEBFCDBF21E0A0E0B1E001C01D92A336FC
:10008000B207E1F70E94C9000C9436020C940000FC
:10009000382FFC018FEF9FEF2E2F231B261708F020
:1000A00008952191822728E0AC014170552796954B
:1000B0008795452B21F041E0842740EA9427215081
:1000C00099F7EACF282FFC018E2F821B861708F0A4
:1000D000089581919091C00095FFFCCF8093C60058
:1000E000F3CFCF93DF93C1E0D1E091E098838068B4
:1000F00089836A8363E0CE010E9448009C838B83DE
:1001000065E0CE01DF91CF910C9462001F921FB683
:100110001F9211248F939F93EF93FF938091C600BA
:1001200090912101911115C090912201903488F491
:10013000E091220191E09E0F90932201F0E0ED5DAD
:10014000FE4F808310928500109284008BE0809394
:100150008100FF91EF919F918F911F901FBE1F9083
:1001600018951F921FB61F9211248F9388E08093D9
:1001700081001092850010928400809122018823D2
:1001800019F081E0809321018F911F901FBE1F9075
:1001900018958FEF84B915B81092C50087E6809343
:1001A000C40088E98093C10086E08093C200109269
:1001B000800088E08093810087EE93E0909389002F
:1001C0008093880082E080936F00789401E010E0D3
:1001D000809121018823E1F380912201843008F489
:1001E000CCC080912301813009F0C7C0E091220189
:1001F000E250FF0BED5DFE4FC081E0912201E15026
:10020000FF0BED5DFE4F8081D82F6091220162507F
:1002100083E291E00E944800C817D90709F0ADC0F9
:1002200080912401813009F06EC0909122019830B4
:1002300009F0A3C09091250140912601592F90917A
:10024000270120912801392F2115310549F0483027
:10025000510530F4BA01620F731F6930710528F03F
:1002600062E081E00E94710088C0E901279693E076
:10027000D695C7959A95E1F79C2F809301018093BD
:100280000201C0930301E4E0F1E080E098131BC099
:10029000A0910001B0E080E0682F70E082171306A3
:1002A000A8F0DC2FDD5F6D2F81E091E00E94480017
:1002B000ED2FF0E0EF5FFE4F808391836C2F6B5F3B
:1002C00081E091E058C011928F5FE0CF640F751FFD
:1002D000FD0102C0F695E7956A95E2F7E0FF11C0CF
:1002E000E82FE695E695E695F0E0EC5FFE4F982F57
:1002F0009770B80101C0660F9A95EAF79081962B26
:1003000090838F5FC9CF853009F03EC08091220174
:10031000883099F59091250180912601309127012F
:10032000209128018830910518F062E085E09ACF8D
:100330002115FFEF3F0771F0232BB9F7980102C099
:10034000220F331F8A95E2F7922F9095809100013A
:10035000892308C0980101C0220F8A95EAF780918D
:100360000001822B809300018091000185B960918A
:10037000220183E291E00E946200F894109222012F
:1003800010922101789424CF8F3009F06DC08091B4
:100390002201893090F390912501409126013091FE
:1003A0002701209128018091290150912201875F26
:1003B0008513E3CF21153105A9F1592F4830510597
:1003C00088F5CA01820F931F099760F5809100019B
:1003D00090E0A92FB0E09217130638F18093000146
:1003E00085B981E0809301018FE0809302018091C3
:1003F000250180930301809126018093040180915F
:10040000270180930501809128018093060166E011
:1004100081E091E00E9448009093080180930701D9
:1004200068E04ECF62E08FE01DCFE92FE695E695BC
:10043000E695F0E0E65DFE4F6081A40FB51FF80180
:1004400001C0EE0FAA95EAF770E0A92FA77002C0CD
:1004500075956795AA95E2F760FF03C08E2B9F5FA5
:10046000B8CFE0958E23FBCF61E0FCCEF894FFCFB0
:00000001FF
